:020000040000FA
:0600000010EF06F01200F3
:020006001200E6
:060008000EEF00F01200F3
:02000E000100EF
:0C0010004A0C0000810000000B00000002
:04001C00DACFE4FF54
:10002000E2CFDAFFE9CFE4FFEACFE4FFF6CFE4FF67
:10003000F7CFE4FFF5CFE4FFF3CFE4FFF4CFE4FF25
:10004000FACFE4FF00EE00F0140EE80403E3EECF75
:10005000E4FFFBD700EE14F0050EE80403E3EECF57
:10006000E4FFFBD7E652F2A202D0DDD8F292E552CD
:1000700000EE18F0050EE80403E3E5CFEDFFFBD733
:1000800000EE13F0140EE80403E3E5CFEDFFFBD719
:10009000E5CFFAFFE5CFF4FFE5CFF3FFE5CFF5FFBE
:1000A000E5CFF7FFE5CFF6FFE5CFEAFFE5CFE9FFC4
:1000B000E5CFDAFF1100936A956A94689380816AAC
:1000C000836A8268F292F288F18CF28EEAD800019B
:1000D000616B626B636B646B656B666B0001010E39
:1000E000826F836F8A6B8B6B0001810501E099D071
:1000F0008B0502E18B6B2CDB60C0E6FF0ED9E5526D
:100100003D0E0001605D02E0000E01D0010E186E90
:10011000430E605D02E0000E01D0010E176E2D0E41
:10012000605D02E0000E01D0010E166E2A0E605DC9
:1001300002E0000E01D0010E156E2F0E605D02E090
:10014000000E01D0010E146E2B0E605D02E0000E59
:1001500001D0010E141015101610171018101BE006
:1001600000018A0513E1010E846F3D0E865D0EE1EC
:100170009BD90ADB0001616B626B636B646B656B1F
:10018000666B00018A6B010E826F836F430E865D82
:1001900001E1DEDA3ED0000184511EE185050FE168
:1001A0000A0E086E096A61C00DF062C00EF0DCEC48
:1001B00005F006C061F007C062F00001856B0F0E0C
:1001C00000016015606F60516125616F000E622152
:1001D000626F0001010E8A6F84051BE185050FE146
:1001E0000A0E086E096A63C00DF064C00EF0DCEC04
:1001F00005F006C063F007C064F00001856B0F0EC8
:1002000000016015606F60516325636F000E64210B
:10021000646F0001816B010E856F060EE66E56D885
:10022000E55262D712000F0E82140001606F0001C8
:10023000010E816F1200D9CFE6FFE1CFD9FF040E86
:10024000E126DE6ADD6AD9CFE9FFDACFEAFF320EB6
:10025000D880EE54000EED541AE3020EDB6A030E52
:10026000DB6AD950020FE96EDACFEAFF0A0ED880B6
:10027000EE54000EED5406E3020EDB2A030E01E3FA
:10028000DB2AEFD7DF2A010E01E3DB2ADCD7040EDD
:10029000E15C02E2E16AE552E16EE552E7CFD9FFA7
:1002A0001200380EE66E12D8E552C5DF010EE66E7A
:1002B0000DD8E552C0DF0E0EE66E08D8E552BBDF62
:1002C000800EE66E03D8E5521BEF01F0D9CFE6FFB2
:1002D000E1CFD9FFE652819AAEDF819CFE0EDB5062
:1002E000836EA9DF818EDF6A819EE552E552E7CFFA
:1002F000D9FF1200D9CFE6FFE1CFD9FFE652818ABC
:10030000819CFE0EDB50836E96DF818EDF6A819EBC
:10031000E552E552E7CFD9FF1200D9CFE6FFE1CF92
:10032000D9FFFE0EDB500F0A01E1ABD0010A01E15B
:100330009DD0030A01E192D0010A01E184D0070AAD
:1003400073E0010A69E0030A5FE0010A55E00F0A61
:1003500049E0010A3FE0030A35E0010A2BE0070A01
:100360001FE0010A15E0030A0BE0010A01E098D042
:100370000001370E606F60C0E6FFBCDFE55290D031
:100380000001380E606F60C0E6FFB4DFE55288D030
:100390000001390E606F60C0E6FFACDFE55280D02F
:1003A00000012F0E606F0001876F87C0E6FFA2DF9C
:1003B000E55276D00001340E606F60C0E6FF9ADF30
:1003C000E5526ED00001350E606F60C0E6FF92DF2F
:1003D000E55266D00001360E606F60C0E6FF8ADF2E
:1003E000E5525ED000012A0E606F0001876F87C062
:1003F000E6FF80DFE55254D00001310E606F60C02F
:10040000E6FF78DFE5524CD00001320E606F60C02D
:10041000E6FF70DFE55244D00001330E606F60C02C
:10042000E6FF68DFE5523CD000018A5102E1020E8E
:10043000826F2D0E876F87C0E6FF5CDFE5520001FB
:100440002D0E606F2DD00001430E866F86C0E6FF33
:1004500051DFE5520001430E606F22D00001300EE3
:10046000606F60C0E6FF46DFE5521AD000013D0E26
:10047000866F86C0E6FF3EDFE55200013D0E606FED
:100480000FD000018A5102E1010E826F2B0E876F9F
:1004900087C0E6FF2FDFE55200012B0E606F00D012
:1004A000E552E7CFD9FF1200000187512F0A01E181
:1004B000CFD0050A01E1A6D0070A5FE0060A01E0F5
:1004C00046D1830502E0000E01D0010E146E8205B4
:1004D00002E0000E01D0010E141407E0000161518A
:1004E0006325656F62516421666F0001830502E038
:1004F000000E01D0010E146E020E825D02E0000EAD
:1005000001D0010E141419E000016151635D656FA3
:1005100062516459666F6151635D625164590DE2C5
:10052000651F661F652B000E6623C00EE66ECEDECD
:10053000E5522D0EE66EDEDEE552020E0001835D11
:1005400002E0000E01D0010E146E020E825D02E088
:10055000000E01D0010E14140FE00001615163255B
:10056000656F62516421666FC00EE66EAFDEE552C4
:100570002D0EE66EBFDEE552EAD0830502E0000EE6
:1005800001D0010E146E820502E0000E01D0010EB2
:10059000141419E000016351615D656F6451625983
:1005A000666F6351615D645162590DE2651F661F9C
:1005B000652B000E6623C00EE66E88DEE5522D0E1A
:1005C000E66E98DEE5520001830502E0000E01D0E0
:1005D000010E146E020E825D02E0000E01D0010ECB
:1005E00014140FE0000161516325656F62516421AD
:1005F000666FC00EE66E6ADEE5522D0EE66E7ADE9E
:10060000E552A5D061C008F062C009F063C00DF0EA
:1006100064C00EF0DCEC05F006C065F007C066F0C3
:100620000001830502E0000E01D0010E146E020EDF
:10063000825D02E0000E01D0010E141408E0C00E2D
:10064000E66E44DEE5522D0EE66E54DEE5527FD0B6
:1006500061C008F062C009F063C00DF064C00EF024
:10066000FAEC05F008C065F009C066F061C008F05A
:1006700062C009F063C00DF064C00EF0FAEC05F042
:1006800004C067F005C068F00001896B0001000E2E
:10069000D8806755000E685502E3000E01D0010EA8
:1006A000146E00018951040802E2000E01D0010E0F
:1006B000141436E00A0E086E096A67C00DF068C0AF
:1006C0000EF0DCEC05F006C067F007C068F067C00C
:1006D00008F068C009F063C00DF064C00EF0FAECD9
:1006E00005F00850E66E00018951EA6A690FE96E6B
:1006F000000EEA22E552E750EF6E67C008F068C0CE
:1007000009F063C00DF064C00EF0FAEC05F004C00F
:1007100067F005C068F00001010E886F892BB6D71D
:10072000830502E0000E01D0010E146E020E825D00
:1007300002E0000E01D0010E141408E0C00EE66EB7
:10074000C5DDE5522D0EE66ED5DDE55200D0120076
:10075000010EE66EBBDDE5526EDD0E0EE66EB6DD19
:10076000E55269DD800EE66EB1DDE5520001616B98
:10077000626B636B646B0001866B876B846B856B4C
:10078000010E826F836F1200C10EE66E9FDDE5528F
:1007900065C077F066C078F0100E0D6E270E0E6EF5
:1007A00077C008F078C009F0FAEC05F008C077F0DF
:1007B00009C078F065C071F066C072F0100E0D6E61
:1007C000270E0E6E71C008F072C009F0FAEC05F049
:1007D00004C071F005C072F071C073F072C074F0A3
:1007E000E80E0D6E030E0E6E73C008F074C009F0B3
:1007F000B6EC05F008C073F009C074F071C075F074
:1008000072C076F0E80E0D6E030E0E6E75C008F025
:1008100076C009F0B6EC05F004C075F005C076F0BE
:1008200075C07FF076C080F0640E0D6E0E6A7FC0DA
:1008300008F080C009F0B6EC05F008C07FF009C0F0
:1008400080F075C079F076C07AF0640E0D6E0E6A95
:1008500079C008F07AC009F0B6EC05F004C079F070
:1008600005C07AF079C07BF07AC07CF00A0E0D6E7C
:100870000E6A7BC008F07CC009F0B6EC05F008C039
:100880007BF009C07CF079C07DF07AC07EF00A0E62
:100890000D6E0E6A7DC008F07EC009F0B6EC05F062
:1008A00004C07DF005C07EF0300E00017711776F37
:1008B000300E7311736F300E7F117F6F300E7B110E
:1008C0007B6F300E7D117D6F0001010E8B6F00017B
:1008D000783504E277513008000E785514E277C07D
:1008E000E6FF08DDE55273C0E6FF04DDE5527FC098
:1008F000E6FF00DDE5527BC0E6FFFCDCE5527DC093
:10090000E6FFF8DCE5520001743504E2735130086B
:10091000000E745502E3000E01D0010E146E300E6D
:10092000771901E1785102E0000E01D0010E141494
:1009300010E073C0E6FFDEDCE5527FC0E6FFDADCE4
:10094000E5527BC0E6FFD6DCE5527DC0E6FFD2DC97
:10095000E5520001803504E27F513008000E8055D9
:1009600002E3000E01D0010E156E300E731901E185
:10097000745102E0000E01D0010E146E300E771992
:1009800001E1785102E0000E01D0010E141415149B
:100990000CE07FC0E6FFAEDCE5527BC0E6FFAADCE0
:1009A000E5527DC0E6FFA6DCE55200017C3504E29D
:1009B0007B513008000E7C5502E3000E01D0010E81
:1009C000166E300E7F1901E1805102E0000E01D059
:1009D000010E156E300E731901E1745102E0000E24
:1009E00001D0010E146E300E771901E1785102E04A
:1009F000000E01D0010E14141514161408E07BC06B
:100A0000E6FF78DCE5527DC0E6FF74DCE5520001CC
:100A1000300E7B1901E17C5102E0000E01D0010E85
:100A2000166E300E7F1901E1805102E0000E01D0F8
:100A3000010E156E300E731901E1745102E0000EC3
:100A400001D0010E146E300E771901E1785102E0E9
:100A5000000E01D0010E14141514161404E07DC00C
:100A6000E6FF48DCE5520001880530E1886B2E0E78
:100A7000E66E40DCE5520001896B8951040826E3EB
:100A80008951EA6A690FE96E000EEA22EF503009D7
:100A9000E66E8951EA6A690FE96E000EEA22E552B4
:100AA000E750EF6E8951EA6A690FE96E000EEA229B
:100AB000EF50E66E1FDCE55200018951EA6A690FCA
:0E0AC000E96E000EEA22EF6A892BD7D71200EA
:020ACE000E0E0A
:100AD000F66E000EF76E000EF86E00010900F5507C
:100AE000916F0900F550926F03E1916701D03DD0FD
:100AF0000900F5508C6F0900F5508D6F0900F55015
:100B00008E6F09000900F550E96E0900F550EA6E94
:100B1000090009000900F5508F6F0900F550906F2A
:100B200009000900F6CF93F0F7CF94F0F8CF95F0D5
:100B30008CC0F6FF8DC0F7FF8EC0F8FF00018F5309
:100B400002E1905307E00900F550EE6E8F07F8E2DE
:100B50009007F9D793C0F6FF94C0F7FF95C0F8FF50
:0C0B600000019107000E925BBFD712004D
:040B6C00006A0EAE5F
:100B7000BFEF05F00D6C0E1EE86A0E22001E09AED6
:100B8000C7EF05F0086C091EE86A0922001EFAEC9E
:100B900005F009BED7EF05F000AE000C086C091E89
:100BA000E86A0922046C051EE86A0522000C00BEF2
:100BB000CEEF05F00188FF0C08C012F008500D02BE
:100BC000F4CF07F0F3CF06F009500E02F4CF09F08E
:100BD000F3CF08F00D02F3500726F4500822E86A1C
:100BE000092212500E02F3500726F4500822E86A38
:040BF0000922000CCA
:0C0BF400056A046A100EE76ED8900836FF
:100C00000936043605360D50045C0E50055805E3D0
:100C10000D50045E0E50055A082AE72EF0D7120038
:100C200015EE00F025EE00F0F86A019C67EC05F087
:0C0C300003EC00F05BEC00F0FBD71200BE
:040C3C0000EE00F0D6
:0A0C40000F0EEE6AEA62FDD7120003
:060C4A00000101000000A2
:050C500000000000009F
:00000001FF
